{
  "contractName": "HouseNFT",
  "abi": [
    {
      "inputs": [
        {
          "internalType": "uint256",
          "name": "_cost",
          "type": "uint256"
        },
        {
          "internalType": "uint256",
          "name": "_maxSupply",
          "type": "uint256"
        }
      ],
      "stateMutability": "nonpayable",
      "type": "constructor"
    },
    {
      "anonymous": false,
      "inputs": [
        {
          "indexed": true,
          "internalType": "address",
          "name": "owner",
          "type": "address"
        },
        {
          "indexed": true,
          "internalType": "address",
          "name": "approved",
          "type": "address"
        },
        {
          "indexed": true,
          "internalType": "uint256",
          "name": "tokenId",
          "type": "uint256"
        }
      ],
      "name": "Approval",
      "type": "event"
    },
    {
      "anonymous": false,
      "inputs": [
        {
          "indexed": true,
          "internalType": "address",
          "name": "owner",
          "type": "address"
        },
        {
          "indexed": true,
          "internalType": "address",
          "name": "operator",
          "type": "address"
        },
        {
          "indexed": false,
          "internalType": "bool",
          "name": "approved",
          "type": "bool"
        }
      ],
      "name": "ApprovalForAll",
      "type": "event"
    },
    {
      "anonymous": false,
      "inputs": [
        {
          "indexed": true,
          "internalType": "uint256",
          "name": "tokenId",
          "type": "uint256"
        },
        {
          "indexed": true,
          "internalType": "address",
          "name": "owner",
          "type": "address"
        },
        {
          "indexed": false,
          "internalType": "string",
          "name": "location",
          "type": "string"
        }
      ],
      "name": "HouseMinted",
      "type": "event"
    },
    {
      "anonymous": false,
      "inputs": [
        {
          "indexed": true,
          "internalType": "address",
          "name": "from",
          "type": "address"
        },
        {
          "indexed": true,
          "internalType": "address",
          "name": "to",
          "type": "address"
        },
        {
          "indexed": true,
          "internalType": "uint256",
          "name": "tokenId",
          "type": "uint256"
        }
      ],
      "name": "Transfer",
      "type": "event"
    },
    {
      "inputs": [
        {
          "internalType": "address",
          "name": "to",
          "type": "address"
        },
        {
          "internalType": "uint256",
          "name": "tokenId",
          "type": "uint256"
        }
      ],
      "name": "approve",
      "outputs": [],
      "stateMutability": "nonpayable",
      "type": "function"
    },
    {
      "inputs": [
        {
          "internalType": "address",
          "name": "owner",
          "type": "address"
        }
      ],
      "name": "balanceOf",
      "outputs": [
        {
          "internalType": "uint256",
          "name": "",
          "type": "uint256"
        }
      ],
      "stateMutability": "view",
      "type": "function",
      "constant": true
    },
    {
      "inputs": [],
      "name": "cost",
      "outputs": [
        {
          "internalType": "uint256",
          "name": "",
          "type": "uint256"
        }
      ],
      "stateMutability": "view",
      "type": "function",
      "constant": true
    },
    {
      "inputs": [
        {
          "internalType": "uint256",
          "name": "tokenId",
          "type": "uint256"
        }
      ],
      "name": "getApproved",
      "outputs": [
        {
          "internalType": "address",
          "name": "",
          "type": "address"
        }
      ],
      "stateMutability": "view",
      "type": "function",
      "constant": true
    },
    {
      "inputs": [
        {
          "internalType": "uint256",
          "name": "",
          "type": "uint256"
        }
      ],
      "name": "houses",
      "outputs": [
        {
          "internalType": "string",
          "name": "location",
          "type": "string"
        },
        {
          "internalType": "uint256",
          "name": "size",
          "type": "uint256"
        },
        {
          "internalType": "address",
          "name": "owner",
          "type": "address"
        }
      ],
      "stateMutability": "view",
      "type": "function",
      "constant": true
    },
    {
      "inputs": [
        {
          "internalType": "address",
          "name": "owner",
          "type": "address"
        },
        {
          "internalType": "address",
          "name": "operator",
          "type": "address"
        }
      ],
      "name": "isApprovedForAll",
      "outputs": [
        {
          "internalType": "bool",
          "name": "",
          "type": "bool"
        }
      ],
      "stateMutability": "view",
      "type": "function",
      "constant": true
    },
    {
      "inputs": [],
      "name": "maxSupply",
      "outputs": [
        {
          "internalType": "uint256",
          "name": "",
          "type": "uint256"
        }
      ],
      "stateMutability": "view",
      "type": "function",
      "constant": true
    },
    {
      "inputs": [],
      "name": "name",
      "outputs": [
        {
          "internalType": "string",
          "name": "",
          "type": "string"
        }
      ],
      "stateMutability": "view",
      "type": "function",
      "constant": true
    },
    {
      "inputs": [
        {
          "internalType": "uint256",
          "name": "tokenId",
          "type": "uint256"
        }
      ],
      "name": "ownerOf",
      "outputs": [
        {
          "internalType": "address",
          "name": "",
          "type": "address"
        }
      ],
      "stateMutability": "view",
      "type": "function",
      "constant": true
    },
    {
      "inputs": [
        {
          "internalType": "address",
          "name": "from",
          "type": "address"
        },
        {
          "internalType": "address",
          "name": "to",
          "type": "address"
        },
        {
          "internalType": "uint256",
          "name": "tokenId",
          "type": "uint256"
        }
      ],
      "name": "safeTransferFrom",
      "outputs": [],
      "stateMutability": "nonpayable",
      "type": "function"
    },
    {
      "inputs": [
        {
          "internalType": "address",
          "name": "from",
          "type": "address"
        },
        {
          "internalType": "address",
          "name": "to",
          "type": "address"
        },
        {
          "internalType": "uint256",
          "name": "tokenId",
          "type": "uint256"
        },
        {
          "internalType": "bytes",
          "name": "data",
          "type": "bytes"
        }
      ],
      "name": "safeTransferFrom",
      "outputs": [],
      "stateMutability": "nonpayable",
      "type": "function"
    },
    {
      "inputs": [
        {
          "internalType": "address",
          "name": "operator",
          "type": "address"
        },
        {
          "internalType": "bool",
          "name": "approved",
          "type": "bool"
        }
      ],
      "name": "setApprovalForAll",
      "outputs": [],
      "stateMutability": "nonpayable",
      "type": "function"
    },
    {
      "inputs": [
        {
          "internalType": "bytes4",
          "name": "interfaceId",
          "type": "bytes4"
        }
      ],
      "name": "supportsInterface",
      "outputs": [
        {
          "internalType": "bool",
          "name": "",
          "type": "bool"
        }
      ],
      "stateMutability": "view",
      "type": "function",
      "constant": true
    },
    {
      "inputs": [],
      "name": "symbol",
      "outputs": [
        {
          "internalType": "string",
          "name": "",
          "type": "string"
        }
      ],
      "stateMutability": "view",
      "type": "function",
      "constant": true
    },
    {
      "inputs": [
        {
          "internalType": "uint256",
          "name": "index",
          "type": "uint256"
        }
      ],
      "name": "tokenByIndex",
      "outputs": [
        {
          "internalType": "uint256",
          "name": "",
          "type": "uint256"
        }
      ],
      "stateMutability": "view",
      "type": "function",
      "constant": true
    },
    {
      "inputs": [
        {
          "internalType": "address",
          "name": "owner",
          "type": "address"
        },
        {
          "internalType": "uint256",
          "name": "index",
          "type": "uint256"
        }
      ],
      "name": "tokenOfOwnerByIndex",
      "outputs": [
        {
          "internalType": "uint256",
          "name": "",
          "type": "uint256"
        }
      ],
      "stateMutability": "view",
      "type": "function",
      "constant": true
    },
    {
      "inputs": [
        {
          "internalType": "uint256",
          "name": "tokenId",
          "type": "uint256"
        }
      ],
      "name": "tokenURI",
      "outputs": [
        {
          "internalType": "string",
          "name": "",
          "type": "string"
        }
      ],
      "stateMutability": "view",
      "type": "function",
      "constant": true
    },
    {
      "inputs": [],
      "name": "totalSupply",
      "outputs": [
        {
          "internalType": "uint256",
          "name": "",
          "type": "uint256"
        }
      ],
      "stateMutability": "view",
      "type": "function",
      "constant": true
    },
    {
      "inputs": [
        {
          "internalType": "address",
          "name": "from",
          "type": "address"
        },
        {
          "internalType": "address",
          "name": "to",
          "type": "address"
        },
        {
          "internalType": "uint256",
          "name": "tokenId",
          "type": "uint256"
        }
      ],
      "name": "transferFrom",
      "outputs": [],
      "stateMutability": "nonpayable",
      "type": "function"
    },
    {
      "inputs": [
        {
          "internalType": "string",
          "name": "_location",
          "type": "string"
        }
      ],
      "name": "mint",
      "outputs": [],
      "stateMutability": "payable",
      "type": "function",
      "payable": true
    },
    {
      "inputs": [
        {
          "internalType": "uint256",
          "name": "_tokenId",
          "type": "uint256"
        }
      ],
      "name": "getHouseLocation",
      "outputs": [
        {
          "internalType": "string",
          "name": "",
          "type": "string"
        }
      ],
      "stateMutability": "view",
      "type": "function",
      "constant": true
    },
    {
      "inputs": [
        {
          "internalType": "uint256",
          "name": "_tokenId",
          "type": "uint256"
        }
      ],
      "name": "getHouseSize",
      "outputs": [
        {
          "internalType": "uint256",
          "name": "",
          "type": "uint256"
        }
      ],
      "stateMutability": "view",
      "type": "function",
      "constant": true
    },
    {
      "inputs": [
        {
          "internalType": "uint256",
          "name": "_tokenId",
          "type": "uint256"
        }
      ],
      "name": "isHouseOwner",
      "outputs": [
        {
          "internalType": "bool",
          "name": "",
          "type": "bool"
        }
      ],
      "stateMutability": "view",
      "type": "function",
      "constant": true
    }
  ],
  "bytecode": "0x60806040523480156200001157600080fd5b5060405162003b0238038062003b028339818101604052810190620000379190620001e5565b6040518060400160405280600881526020017f486f7573654e46540000000000000000000000000000000000000000000000008152506040518060400160405280600481526020017f484e4654000000000000000000000000000000000000000000000000000000008152508160009080519060200190620000bb929190620000f5565b508060019080519060200190620000d4929190620000f5565b50505081600b8190555080600c819055506000600d81905550505062000290565b82805462000103906200025b565b90600052602060002090601f01602090048101928262000127576000855562000173565b82601f106200014257805160ff191683800117855562000173565b8280016001018555821562000173579182015b828111156200017257825182559160200191906001019062000155565b5b50905062000182919062000186565b5090565b5b80821115620001a157600081600090555060010162000187565b5090565b600080fd5b6000819050919050565b620001bf81620001aa565b8114620001cb57600080fd5b50565b600081519050620001df81620001b4565b92915050565b60008060408385031215620001ff57620001fe620001a5565b5b60006200020f85828601620001ce565b92505060206200022285828601620001ce565b9150509250929050565b7f4e487b7100000000000000000000000000000000000000000000000000000000600052602260045260246000fd5b600060028204905060018216806200027457607f821691505b6020821081036200028a57620002896200022c565b5b50919050565b61386280620002a06000396000f3fe60806040526004361061013f5760003560e01c80634f6ccce7116100b6578063b88d4fde1161006f578063b88d4fde146104bb578063c87b56dd146104e4578063d5abeb0114610521578063d85d3d271461054c578063dac764a514610568578063e985e9c5146105a55761013f565b80634f6ccce7146103715780636352211e146103ae57806370a08231146103eb57806395d89b4114610428578063a22cb46514610453578063aeda852f1461047c5761013f565b806313faede61161010857806313faede61461024f578063168409aa1461027a57806318160ddd146102b757806323b872dd146102e25780632f745c591461030b57806342842e0e146103485761013f565b8062194def1461014457806301ffc9a71461018157806306fdde03146101be578063081812fc146101e9578063095ea7b314610226575b600080fd5b34801561015057600080fd5b5061016b600480360381019061016691906125bc565b6105e2565b6040516101789190612604565b60405180910390f35b34801561018d57600080fd5b506101a860048036038101906101a39190612677565b6106a3565b6040516101b59190612604565b60405180910390f35b3480156101ca57600080fd5b506101d361071d565b6040516101e0919061273d565b60405180910390f35b3480156101f557600080fd5b50610210600480360381019061020b91906125bc565b6107af565b60405161021d91906127a0565b60405180910390f35b34801561023257600080fd5b5061024d600480360381019061024891906127e7565b6107f5565b005b34801561025b57600080fd5b5061026461090c565b6040516102719190612836565b60405180910390f35b34801561028657600080fd5b506102a1600480360381019061029c91906125bc565b610912565b6040516102ae9190612836565b60405180910390f35b3480156102c357600080fd5b506102cc610985565b6040516102d99190612836565b60405180910390f35b3480156102ee57600080fd5b5061030960048036038101906103049190612851565b610992565b005b34801561031757600080fd5b50610332600480360381019061032d91906127e7565b6109f2565b60405161033f9190612836565b60405180910390f35b34801561035457600080fd5b5061036f600480360381019061036a9190612851565b610a97565b005b34801561037d57600080fd5b50610398600480360381019061039391906125bc565b610ab7565b6040516103a59190612836565b60405180910390f35b3480156103ba57600080fd5b506103d560048036038101906103d091906125bc565b610b28565b6040516103e291906127a0565b60405180910390f35b3480156103f757600080fd5b50610412600480360381019061040d91906128a4565b610bae565b60405161041f9190612836565b60405180910390f35b34801561043457600080fd5b5061043d610c65565b60405161044a919061273d565b60405180910390f35b34801561045f57600080fd5b5061047a600480360381019061047591906128fd565b610cf7565b005b34801561048857600080fd5b506104a3600480360381019061049e91906125bc565b610d0d565b6040516104b29392919061293d565b60405180910390f35b3480156104c757600080fd5b506104e260048036038101906104dd9190612ab0565b610def565b005b3480156104f057600080fd5b5061050b600480360381019061050691906125bc565b610e51565b604051610518919061273d565b60405180910390f35b34801561052d57600080fd5b50610536610eb9565b6040516105439190612836565b60405180910390f35b61056660048036038101906105619190612bd4565b610ebf565b005b34801561057457600080fd5b5061058f600480360381019061058a91906125bc565b6110a5565b60405161059c919061273d565b60405180910390f35b3480156105b157600080fd5b506105cc60048036038101906105c79190612c1d565b6111a0565b6040516105d99190612604565b60405180910390f35b6000600d548210610628576040517f08c379a000000000000000000000000000000000000000000000000000000000815260040161061f90612ca9565b60405180910390fd5b3373ffffffffffffffffffffffffffffffffffffffff16600a838154811061065357610652612cc9565b5b906000526020600020906003020160020160009054906101000a900473ffffffffffffffffffffffffffffffffffffffff1673ffffffffffffffffffffffffffffffffffffffff16149050919050565b60007f780e9d63000000000000000000000000000000000000000000000000000000007bffffffffffffffffffffffffffffffffffffffffffffffffffffffff1916827bffffffffffffffffffffffffffffffffffffffffffffffffffffffff19161480610716575061071582611234565b5b9050919050565b60606000805461072c90612d27565b80601f016020809104026020016040519081016040528092919081815260200182805461075890612d27565b80156107a55780601f1061077a576101008083540402835291602001916107a5565b820191906000526020600020905b81548152906001019060200180831161078857829003601f168201915b5050505050905090565b60006107ba82611316565b6004600083815260200190815260200160002060009054906101000a900473ffffffffffffffffffffffffffffffffffffffff169050919050565b600061080082610b28565b90508073ffffffffffffffffffffffffffffffffffffffff168373ffffffffffffffffffffffffffffffffffffffff1603610870576040517f08c379a000000000000000000000000000000000000000000000000000000000815260040161086790612dca565b60405180910390fd5b8073ffffffffffffffffffffffffffffffffffffffff1661088f611361565b73ffffffffffffffffffffffffffffffffffffffff1614806108be57506108bd816108b8611361565b6111a0565b5b6108fd576040517f08c379a00000000000000000000000000000000000000000000000000000000081526004016108f490612e5c565b60405180910390fd5b6109078383611369565b505050565b600b5481565b6000600d548210610958576040517f08c379a000000000000000000000000000000000000000000000000000000000815260040161094f90612ca9565b60405180910390fd5b600a828154811061096c5761096b612cc9565b5b9060005260206000209060030201600101549050919050565b6000600880549050905090565b6109a361099d611361565b82611422565b6109e2576040517f08c379a00000000000000000000000000000000000000000000000000000000081526004016109d990612eee565b60405180910390fd5b6109ed8383836114b7565b505050565b60006109fd83610bae565b8210610a3e576040517f08c379a0000000000000000000000000000000000000000000000000000000008152600401610a3590612f80565b60405180910390fd5b600660008473ffffffffffffffffffffffffffffffffffffffff1673ffffffffffffffffffffffffffffffffffffffff168152602001908152602001600020600083815260200190815260200160002054905092915050565b610ab283838360405180602001604052806000815250610def565b505050565b6000610ac1610985565b8210610b02576040517f08c379a0000000000000000000000000000000000000000000000000000000008152600401610af990613012565b60405180910390fd5b60088281548110610b1657610b15612cc9565b5b90600052602060002001549050919050565b600080610b34836117b0565b9050600073ffffffffffffffffffffffffffffffffffffffff168173ffffffffffffffffffffffffffffffffffffffff1603610ba5576040517f08c379a0000000000000000000000000000000000000000000000000000000008152600401610b9c9061307e565b60405180910390fd5b80915050919050565b60008073ffffffffffffffffffffffffffffffffffffffff168273ffffffffffffffffffffffffffffffffffffffff1603610c1e576040517f08c379a0000000000000000000000000000000000000000000000000000000008152600401610c1590613110565b60405180910390fd5b600360008373ffffffffffffffffffffffffffffffffffffffff1673ffffffffffffffffffffffffffffffffffffffff168152602001908152602001600020549050919050565b606060018054610c7490612d27565b80601f0160208091040260200160405190810160405280929190818152602001828054610ca090612d27565b8015610ced5780601f10610cc257610100808354040283529160200191610ced565b820191906000526020600020905b815481529060010190602001808311610cd057829003601f168201915b5050505050905090565b610d09610d02611361565b83836117ed565b5050565b600a8181548110610d1d57600080fd5b9060005260206000209060030201600091509050806000018054610d4090612d27565b80601f0160208091040260200160405190810160405280929190818152602001828054610d6c90612d27565b8015610db95780601f10610d8e57610100808354040283529160200191610db9565b820191906000526020600020905b815481529060010190602001808311610d9c57829003601f168201915b5050505050908060010154908060020160009054906101000a900473ffffffffffffffffffffffffffffffffffffffff16905083565b610e00610dfa611361565b83611422565b610e3f576040517f08c379a0000000000000000000000000000000000000000000000000000000008152600401610e3690612eee565b60405180910390fd5b610e4b84848484611959565b50505050565b6060610e5c82611316565b6000610e666119b5565b90506000815111610e865760405180602001604052806000815250610eb1565b80610e90846119cc565b604051602001610ea192919061316c565b6040516020818303038152906040525b915050919050565b600c5481565b600c54600d5410610f05576040517f08c379a0000000000000000000000000000000000000000000000000000000008152600401610efc90613202565b60405180910390fd5b600b54341015610f4a576040517f08c379a0000000000000000000000000000000000000000000000000000000008152600401610f4190613294565b60405180910390fd5b60006040518060600160405280838152602001600081526020013373ffffffffffffffffffffffffffffffffffffffff168152509050600a8190806001815401808255809150506001900390600052602060002090600302016000909190919091506000820151816000019080519060200190610fc89291906124cf565b506020820151816001015560408201518160020160006101000a81548173ffffffffffffffffffffffffffffffffffffffff021916908373ffffffffffffffffffffffffffffffffffffffff1602179055505050600d600081548092919061102f906132e3565b919050555060006001600d54611045919061332b565b90506110513382611a9a565b3373ffffffffffffffffffffffffffffffffffffffff16817f0335079c39843c34118150fcac157d550dcc7526ec56f068c4350f008d38692685604051611098919061273d565b60405180910390a3505050565b6060600d5482106110eb576040517f08c379a00000000000000000000000000000000000000000000000000000000081526004016110e290612ca9565b60405180910390fd5b600a82815481106110ff576110fe612cc9565b5b9060005260206000209060030201600001805461111b90612d27565b80601f016020809104026020016040519081016040528092919081815260200182805461114790612d27565b80156111945780601f1061116957610100808354040283529160200191611194565b820191906000526020600020905b81548152906001019060200180831161117757829003601f168201915b50505050509050919050565b6000600560008473ffffffffffffffffffffffffffffffffffffffff1673ffffffffffffffffffffffffffffffffffffffff16815260200190815260200160002060008373ffffffffffffffffffffffffffffffffffffffff1673ffffffffffffffffffffffffffffffffffffffff16815260200190815260200160002060009054906101000a900460ff16905092915050565b60007f80ac58cd000000000000000000000000000000000000000000000000000000007bffffffffffffffffffffffffffffffffffffffffffffffffffffffff1916827bffffffffffffffffffffffffffffffffffffffffffffffffffffffff191614806112ff57507f5b5e139f000000000000000000000000000000000000000000000000000000007bffffffffffffffffffffffffffffffffffffffffffffffffffffffff1916827bffffffffffffffffffffffffffffffffffffffffffffffffffffffff1916145b8061130f575061130e82611cb7565b5b9050919050565b61131f81611d21565b61135e576040517f08c379a00000000000000000000000000000000000000000000000000000000081526004016113559061307e565b60405180910390fd5b50565b600033905090565b816004600083815260200190815260200160002060006101000a81548173ffffffffffffffffffffffffffffffffffffffff021916908373ffffffffffffffffffffffffffffffffffffffff160217905550808273ffffffffffffffffffffffffffffffffffffffff166113dc83610b28565b73ffffffffffffffffffffffffffffffffffffffff167f8c5be1e5ebec7d5bd14f71427d1e84f3dd0314c0f7b2291e5b200ac8c7c3b92560405160405180910390a45050565b60008061142e83610b28565b90508073ffffffffffffffffffffffffffffffffffffffff168473ffffffffffffffffffffffffffffffffffffffff161480611470575061146f81856111a0565b5b806114ae57508373ffffffffffffffffffffffffffffffffffffffff16611496846107af565b73ffffffffffffffffffffffffffffffffffffffff16145b91505092915050565b8273ffffffffffffffffffffffffffffffffffffffff166114d782610b28565b73ffffffffffffffffffffffffffffffffffffffff161461152d576040517f08c379a0000000000000000000000000000000000000000000000000000000008152600401611524906133d1565b60405180910390fd5b600073ffffffffffffffffffffffffffffffffffffffff168273ffffffffffffffffffffffffffffffffffffffff160361159c576040517f08c379a000000000000000000000000000000000000000000000000000000000815260040161159390613463565b60405180910390fd5b6115a98383836001611d62565b8273ffffffffffffffffffffffffffffffffffffffff166115c982610b28565b73ffffffffffffffffffffffffffffffffffffffff161461161f576040517f08c379a0000000000000000000000000000000000000000000000000000000008152600401611616906133d1565b60405180910390fd5b6004600082815260200190815260200160002060006101000a81549073ffffffffffffffffffffffffffffffffffffffff02191690556001600360008573ffffffffffffffffffffffffffffffffffffffff1673ffffffffffffffffffffffffffffffffffffffff168152602001908152602001600020600082825403925050819055506001600360008473ffffffffffffffffffffffffffffffffffffffff1673ffffffffffffffffffffffffffffffffffffffff16815260200190815260200160002060008282540192505081905550816002600083815260200190815260200160002060006101000a81548173ffffffffffffffffffffffffffffffffffffffff021916908373ffffffffffffffffffffffffffffffffffffffff160217905550808273ffffffffffffffffffffffffffffffffffffffff168473ffffffffffffffffffffffffffffffffffffffff167fddf252ad1be2c89b69c2b068fc378daa952ba7f163c4a11628f55a4df523b3ef60405160405180910390a46117ab8383836001611ec0565b505050565b60006002600083815260200190815260200160002060009054906101000a900473ffffffffffffffffffffffffffffffffffffffff169050919050565b8173ffffffffffffffffffffffffffffffffffffffff168373ffffffffffffffffffffffffffffffffffffffff160361185b576040517f08c379a0000000000000000000000000000000000000000000000000000000008152600401611852906134cf565b60405180910390fd5b80600560008573ffffffffffffffffffffffffffffffffffffffff1673ffffffffffffffffffffffffffffffffffffffff16815260200190815260200160002060008473ffffffffffffffffffffffffffffffffffffffff1673ffffffffffffffffffffffffffffffffffffffff16815260200190815260200160002060006101000a81548160ff0219169083151502179055508173ffffffffffffffffffffffffffffffffffffffff168373ffffffffffffffffffffffffffffffffffffffff167f17307eab39ab6107e8899845ad3d59bd9653f200f220920489ca2b5937696c318360405161194c9190612604565b60405180910390a3505050565b6119648484846114b7565b61197084848484611ec6565b6119af576040517f08c379a00000000000000000000000000000000000000000000000000000000081526004016119a690613561565b60405180910390fd5b50505050565b606060405180602001604052806000815250905090565b6060600060016119db8461204d565b01905060008167ffffffffffffffff8111156119fa576119f9612985565b5b6040519080825280601f01601f191660200182016040528015611a2c5781602001600182028036833780820191505090505b509050600082602001820190505b600115611a8f578080600190039150507f3031323334353637383961626364656600000000000000000000000000000000600a86061a8153600a8581611a8357611a82613581565b5b04945060008503611a3a575b819350505050919050565b600073ffffffffffffffffffffffffffffffffffffffff168273ffffffffffffffffffffffffffffffffffffffff1603611b09576040517f08c379a0000000000000000000000000000000000000000000000000000000008152600401611b00906135fc565b60405180910390fd5b611b1281611d21565b15611b52576040517f08c379a0000000000000000000000000000000000000000000000000000000008152600401611b4990613668565b60405180910390fd5b611b60600083836001611d62565b611b6981611d21565b15611ba9576040517f08c379a0000000000000000000000000000000000000000000000000000000008152600401611ba090613668565b60405180910390fd5b6001600360008473ffffffffffffffffffffffffffffffffffffffff1673ffffffffffffffffffffffffffffffffffffffff16815260200190815260200160002060008282540192505081905550816002600083815260200190815260200160002060006101000a81548173ffffffffffffffffffffffffffffffffffffffff021916908373ffffffffffffffffffffffffffffffffffffffff160217905550808273ffffffffffffffffffffffffffffffffffffffff16600073ffffffffffffffffffffffffffffffffffffffff167fddf252ad1be2c89b69c2b068fc378daa952ba7f163c4a11628f55a4df523b3ef60405160405180910390a4611cb3600083836001611ec0565b5050565b60007f01ffc9a7000000000000000000000000000000000000000000000000000000007bffffffffffffffffffffffffffffffffffffffffffffffffffffffff1916827bffffffffffffffffffffffffffffffffffffffffffffffffffffffff1916149050919050565b60008073ffffffffffffffffffffffffffffffffffffffff16611d43836117b0565b73ffffffffffffffffffffffffffffffffffffffff1614159050919050565b611d6e848484846121a0565b6001811115611db2576040517f08c379a0000000000000000000000000000000000000000000000000000000008152600401611da9906136fa565b60405180910390fd5b6000829050600073ffffffffffffffffffffffffffffffffffffffff168573ffffffffffffffffffffffffffffffffffffffff1603611df957611df4816121a6565b611e38565b8373ffffffffffffffffffffffffffffffffffffffff168573ffffffffffffffffffffffffffffffffffffffff1614611e3757611e3685826121ef565b5b5b600073ffffffffffffffffffffffffffffffffffffffff168473ffffffffffffffffffffffffffffffffffffffff1603611e7a57611e758161235c565b611eb9565b8473ffffffffffffffffffffffffffffffffffffffff168473ffffffffffffffffffffffffffffffffffffffff1614611eb857611eb7848261242d565b5b5b5050505050565b50505050565b6000611ee78473ffffffffffffffffffffffffffffffffffffffff166124ac565b15612040578373ffffffffffffffffffffffffffffffffffffffff1663150b7a02611f10611361565b8786866040518563ffffffff1660e01b8152600401611f32949392919061376f565b6020604051808303816000875af1925050508015611f6e57506040513d601f19601f82011682018060405250810190611f6b91906137d0565b60015b611ff0573d8060008114611f9e576040519150601f19603f3d011682016040523d82523d6000602084013e611fa3565b606091505b506000815103611fe8576040517f08c379a0000000000000000000000000000000000000000000000000000000008152600401611fdf90613561565b60405180910390fd5b805181602001fd5b63150b7a0260e01b7bffffffffffffffffffffffffffffffffffffffffffffffffffffffff1916817bffffffffffffffffffffffffffffffffffffffffffffffffffffffff191614915050612045565b600190505b949350505050565b600080600090507a184f03e93ff9f4daa797ed6e38ed64bf6a1f01000000000000000083106120ab577a184f03e93ff9f4daa797ed6e38ed64bf6a1f01000000000000000083816120a1576120a0613581565b5b0492506040810190505b6d04ee2d6d415b85acef810000000083106120e8576d04ee2d6d415b85acef810000000083816120de576120dd613581565b5b0492506020810190505b662386f26fc10000831061211757662386f26fc10000838161210d5761210c613581565b5b0492506010810190505b6305f5e1008310612140576305f5e100838161213657612135613581565b5b0492506008810190505b612710831061216557612710838161215b5761215a613581565b5b0492506004810190505b60648310612188576064838161217e5761217d613581565b5b0492506002810190505b600a8310612197576001810190505b80915050919050565b50505050565b6008805490506009600083815260200190815260200160002081905550600881908060018154018082558091505060019003906000526020600020016000909190919091505550565b600060016121fc84610bae565b612206919061332b565b90506000600760008481526020019081526020016000205490508181146122eb576000600660008673ffffffffffffffffffffffffffffffffffffffff1673ffffffffffffffffffffffffffffffffffffffff168152602001908152602001600020600084815260200190815260200160002054905080600660008773ffffffffffffffffffffffffffffffffffffffff1673ffffffffffffffffffffffffffffffffffffffff168152602001908152602001600020600084815260200190815260200160002081905550816007600083815260200190815260200160002081905550505b6007600084815260200190815260200160002060009055600660008573ffffffffffffffffffffffffffffffffffffffff1673ffffffffffffffffffffffffffffffffffffffff16815260200190815260200160002060008381526020019081526020016000206000905550505050565b60006001600880549050612370919061332b565b90506000600960008481526020019081526020016000205490506000600883815481106123a05761239f612cc9565b5b9060005260206000200154905080600883815481106123c2576123c1612cc9565b5b906000526020600020018190555081600960008381526020019081526020016000208190555060096000858152602001908152602001600020600090556008805480612411576124106137fd565b5b6001900381819060005260206000200160009055905550505050565b600061243883610bae565b905081600660008573ffffffffffffffffffffffffffffffffffffffff1673ffffffffffffffffffffffffffffffffffffffff168152602001908152602001600020600083815260200190815260200160002081905550806007600084815260200190815260200160002081905550505050565b6000808273ffffffffffffffffffffffffffffffffffffffff163b119050919050565b8280546124db90612d27565b90600052602060002090601f0160209004810192826124fd5760008555612544565b82601f1061251657805160ff1916838001178555612544565b82800160010185558215612544579182015b82811115612543578251825591602001919060010190612528565b5b5090506125519190612555565b5090565b5b8082111561256e576000816000905550600101612556565b5090565b6000604051905090565b600080fd5b600080fd5b6000819050919050565b61259981612586565b81146125a457600080fd5b50565b6000813590506125b681612590565b92915050565b6000602082840312156125d2576125d161257c565b5b60006125e0848285016125a7565b91505092915050565b60008115159050919050565b6125fe816125e9565b82525050565b600060208201905061261960008301846125f5565b92915050565b60007fffffffff0000000000000000000000000000000000000000000000000000000082169050919050565b6126548161261f565b811461265f57600080fd5b50565b6000813590506126718161264b565b92915050565b60006020828403121561268d5761268c61257c565b5b600061269b84828501612662565b91505092915050565b600081519050919050565b600082825260208201905092915050565b60005b838110156126de5780820151818401526020810190506126c3565b838111156126ed576000848401525b50505050565b6000601f19601f8301169050919050565b600061270f826126a4565b61271981856126af565b93506127298185602086016126c0565b612732816126f3565b840191505092915050565b600060208201905081810360008301526127578184612704565b905092915050565b600073ffffffffffffffffffffffffffffffffffffffff82169050919050565b600061278a8261275f565b9050919050565b61279a8161277f565b82525050565b60006020820190506127b56000830184612791565b92915050565b6127c48161277f565b81146127cf57600080fd5b50565b6000813590506127e1816127bb565b92915050565b600080604083850312156127fe576127fd61257c565b5b600061280c858286016127d2565b925050602061281d858286016125a7565b9150509250929050565b61283081612586565b82525050565b600060208201905061284b6000830184612827565b92915050565b60008060006060848603121561286a5761286961257c565b5b6000612878868287016127d2565b9350506020612889868287016127d2565b925050604061289a868287016125a7565b9150509250925092565b6000602082840312156128ba576128b961257c565b5b60006128c8848285016127d2565b91505092915050565b6128da816125e9565b81146128e557600080fd5b50565b6000813590506128f7816128d1565b92915050565b600080604083850312156129145761291361257c565b5b6000612922858286016127d2565b9250506020612933858286016128e8565b9150509250929050565b600060608201905081810360008301526129578186612704565b90506129666020830185612827565b6129736040830184612791565b949350505050565b600080fd5b600080fd5b7f4e487b7100000000000000000000000000000000000000000000000000000000600052604160045260246000fd5b6129bd826126f3565b810181811067ffffffffffffffff821117156129dc576129db612985565b5b80604052505050565b60006129ef612572565b90506129fb82826129b4565b919050565b600067ffffffffffffffff821115612a1b57612a1a612985565b5b612a24826126f3565b9050602081019050919050565b82818337600083830152505050565b6000612a53612a4e84612a00565b6129e5565b905082815260208101848484011115612a6f57612a6e612980565b5b612a7a848285612a31565b509392505050565b600082601f830112612a9757612a9661297b565b5b8135612aa7848260208601612a40565b91505092915050565b60008060008060808587031215612aca57612ac961257c565b5b6000612ad8878288016127d2565b9450506020612ae9878288016127d2565b9350506040612afa878288016125a7565b925050606085013567ffffffffffffffff811115612b1b57612b1a612581565b5b612b2787828801612a82565b91505092959194509250565b600067ffffffffffffffff821115612b4e57612b4d612985565b5b612b57826126f3565b9050602081019050919050565b6000612b77612b7284612b33565b6129e5565b905082815260208101848484011115612b9357612b92612980565b5b612b9e848285612a31565b509392505050565b600082601f830112612bbb57612bba61297b565b5b8135612bcb848260208601612b64565b91505092915050565b600060208284031215612bea57612be961257c565b5b600082013567ffffffffffffffff811115612c0857612c07612581565b5b612c1484828501612ba6565b91505092915050565b60008060408385031215612c3457612c3361257c565b5b6000612c42858286016127d2565b9250506020612c53858286016127d2565b9150509250929050565b7f4c274944206465206c61206d6169736f6e206e27657869737465207061730000600082015250565b6000612c93601e836126af565b9150612c9e82612c5d565b602082019050919050565b60006020820190508181036000830152612cc281612c86565b9050919050565b7f4e487b7100000000000000000000000000000000000000000000000000000000600052603260045260246000fd5b7f4e487b7100000000000000000000000000000000000000000000000000000000600052602260045260246000fd5b60006002820490506001821680612d3f57607f821691505b602082108103612d5257612d51612cf8565b5b50919050565b7f4552433732313a20617070726f76616c20746f2063757272656e74206f776e6560008201527f7200000000000000000000000000000000000000000000000000000000000000602082015250565b6000612db46021836126af565b9150612dbf82612d58565b604082019050919050565b60006020820190508181036000830152612de381612da7565b9050919050565b7f4552433732313a20617070726f76652063616c6c6572206973206e6f7420746f60008201527f6b656e206f776e6572206f7220617070726f76656420666f7220616c6c000000602082015250565b6000612e46603d836126af565b9150612e5182612dea565b604082019050919050565b60006020820190508181036000830152612e7581612e39565b9050919050565b7f4552433732313a2063616c6c6572206973206e6f7420746f6b656e206f776e6560008201527f72206f7220617070726f76656400000000000000000000000000000000000000602082015250565b6000612ed8602d836126af565b9150612ee382612e7c565b604082019050919050565b60006020820190508181036000830152612f0781612ecb565b9050919050565b7f455243373231456e756d657261626c653a206f776e657220696e646578206f7560008201527f74206f6620626f756e6473000000000000000000000000000000000000000000602082015250565b6000612f6a602b836126af565b9150612f7582612f0e565b604082019050919050565b60006020820190508181036000830152612f9981612f5d565b9050919050565b7f455243373231456e756d657261626c653a20676c6f62616c20696e646578206f60008201527f7574206f6620626f756e64730000000000000000000000000000000000000000602082015250565b6000612ffc602c836126af565b915061300782612fa0565b604082019050919050565b6000602082019050818103600083015261302b81612fef565b9050919050565b7f4552433732313a20696e76616c696420746f6b656e2049440000000000000000600082015250565b60006130686018836126af565b915061307382613032565b602082019050919050565b600060208201905081810360008301526130978161305b565b9050919050565b7f4552433732313a2061646472657373207a65726f206973206e6f74206120766160008201527f6c6964206f776e65720000000000000000000000000000000000000000000000602082015250565b60006130fa6029836126af565b91506131058261309e565b604082019050919050565b60006020820190508181036000830152613129816130ed565b9050919050565b600081905092915050565b6000613146826126a4565b6131508185613130565b93506131608185602086016126c0565b80840191505092915050565b6000613178828561313b565b9150613184828461313b565b91508190509392505050565b7f4e6f6d627265206d6178696d616c206465206d6169736f6e732061747465696e60008201527f7400000000000000000000000000000000000000000000000000000000000000602082015250565b60006131ec6021836126af565b91506131f782613190565b604082019050919050565b6000602082019050818103600083015261321b816131df565b9050919050565b7f4d6f6e74616e7420642745544820696e737566666973616e7420706f7572206160008201527f63686574657220756e65206d6169736f6e000000000000000000000000000000602082015250565b600061327e6031836126af565b915061328982613222565b604082019050919050565b600060208201905081810360008301526132ad81613271565b9050919050565b7f4e487b7100000000000000000000000000000000000000000000000000000000600052601160045260246000fd5b60006132ee82612586565b91507fffffffffffffffffffffffffffffffffffffffffffffffffffffffffffffffff82036133205761331f6132b4565b5b600182019050919050565b600061333682612586565b915061334183612586565b925082821015613354576133536132b4565b5b828203905092915050565b7f4552433732313a207472616e736665722066726f6d20696e636f72726563742060008201527f6f776e6572000000000000000000000000000000000000000000000000000000602082015250565b60006133bb6025836126af565b91506133c68261335f565b604082019050919050565b600060208201905081810360008301526133ea816133ae565b9050919050565b7f4552433732313a207472616e7366657220746f20746865207a65726f2061646460008201527f7265737300000000000000000000000000000000000000000000000000000000602082015250565b600061344d6024836126af565b9150613458826133f1565b604082019050919050565b6000602082019050818103600083015261347c81613440565b9050919050565b7f4552433732313a20617070726f766520746f2063616c6c657200000000000000600082015250565b60006134b96019836126af565b91506134c482613483565b602082019050919050565b600060208201905081810360008301526134e8816134ac565b9050919050565b7f4552433732313a207472616e7366657220746f206e6f6e20455243373231526560008201527f63656976657220696d706c656d656e7465720000000000000000000000000000602082015250565b600061354b6032836126af565b9150613556826134ef565b604082019050919050565b6000602082019050818103600083015261357a8161353e565b9050919050565b7f4e487b7100000000000000000000000000000000000000000000000000000000600052601260045260246000fd5b7f4552433732313a206d696e7420746f20746865207a65726f2061646472657373600082015250565b60006135e66020836126af565b91506135f1826135b0565b602082019050919050565b60006020820190508181036000830152613615816135d9565b9050919050565b7f4552433732313a20746f6b656e20616c7265616479206d696e74656400000000600082015250565b6000613652601c836126af565b915061365d8261361c565b602082019050919050565b6000602082019050818103600083015261368181613645565b9050919050565b7f455243373231456e756d657261626c653a20636f6e736563757469766520747260008201527f616e7366657273206e6f7420737570706f727465640000000000000000000000602082015250565b60006136e46035836126af565b91506136ef82613688565b604082019050919050565b60006020820190508181036000830152613713816136d7565b9050919050565b600081519050919050565b600082825260208201905092915050565b60006137418261371a565b61374b8185613725565b935061375b8185602086016126c0565b613764816126f3565b840191505092915050565b60006080820190506137846000830187612791565b6137916020830186612791565b61379e6040830185612827565b81810360608301526137b08184613736565b905095945050505050565b6000815190506137ca8161264b565b92915050565b6000602082840312156137e6576137e561257c565b5b60006137f4848285016137bb565b91505092915050565b7f4e487b7100000000000000000000000000000000000000000000000000000000600052603160045260246000fdfea2646970667358221220fb1618b8efe06826c5d9e74333caa866c5ed7aa646ca17addb8bb3bec114bf4d64736f6c634300080d0033",
  "immutableReferences": {},
  "source": "// SPDX-License-Identifier: MIT\r\npragma solidity ^0.8.0;\r\n\r\nimport \"@openzeppelin/contracts/token/ERC721/extensions/ERC721Enumerable.sol\";\r\n\r\ncontract HouseNFT is ERC721Enumerable {\r\n    struct House {\r\n        string location;\r\n        uint256 size;\r\n        address owner;\r\n    }\r\n\r\n    House[] public houses;\r\n    uint256 public cost;\r\n    uint256 public maxSupply;\r\n    uint256 totalSup;\r\n\r\n    event HouseMinted(uint256 indexed tokenId, address indexed owner, string location);\r\n\r\n    constructor(uint256 _cost, uint256 _maxSupply) ERC721(\"HouseNFT\", \"HNFT\") {\r\n        cost = _cost;\r\n        maxSupply = _maxSupply;\r\n        totalSup = 0;\r\n    }\r\n\r\n    function mint(string memory _location) public payable {\r\n        require(totalSup < maxSupply, \"Nombre maximal de maisons atteint\");\r\n        require(msg.value >= cost, \"Montant d'ETH insuffisant pour acheter une maison\");\r\n\r\n        House memory newHouse = House({\r\n            location: _location,\r\n            size: 0, // Remplir la taille de la maison avec une valeur approprie\r\n            owner: msg.sender\r\n        });\r\n\r\n        houses.push(newHouse);\r\n        totalSup++;\r\n\r\n        uint256 tokenId = totalSup - 1;\r\n        _mint(msg.sender, tokenId);\r\n\r\n        emit HouseMinted(tokenId, msg.sender, _location);\r\n    }\r\n\r\n    function getHouseLocation(uint256 _tokenId) public view returns (string memory) {\r\n        require(_tokenId < totalSup, \"L'ID de la maison n'existe pas\");\r\n\r\n        return houses[_tokenId].location;\r\n    }\r\n\r\n    function getHouseSize(uint256 _tokenId) public view returns (uint256) {\r\n        require(_tokenId < totalSup, \"L'ID de la maison n'existe pas\");\r\n\r\n        return houses[_tokenId].size;\r\n    }\r\n\r\n    function isHouseOwner(uint256 _tokenId) public view returns (bool) {\r\n        require(_tokenId < totalSup, \"L'ID de la maison n'existe pas\");\r\n\r\n        return houses[_tokenId].owner == msg.sender;\r\n    }\r\n}",
  "sourcePath": "D:\\Travail\\EPSI\\metaverse\\test\\contracts\\HouseNFT.sol",
  "compiler": {
    "name": "solc",
    "version": "0.8.13+commit.abaa5c0e.Emscripten.clang"
  },
  "schemaVersion": "3.4.14",
  "updatedAt": "2023-07-17T14:03:10.188Z",
  "networkType": "ethereum",
  "devdoc": {
    "kind": "dev",
    "methods": {
      "approve(address,uint256)": {
        "details": "See {IERC721-approve}."
      },
      "balanceOf(address)": {
        "details": "See {IERC721-balanceOf}."
      },
      "getApproved(uint256)": {
        "details": "See {IERC721-getApproved}."
      },
      "isApprovedForAll(address,address)": {
        "details": "See {IERC721-isApprovedForAll}."
      },
      "name()": {
        "details": "See {IERC721Metadata-name}."
      },
      "ownerOf(uint256)": {
        "details": "See {IERC721-ownerOf}."
      },
      "safeTransferFrom(address,address,uint256)": {
        "details": "See {IERC721-safeTransferFrom}."
      },
      "safeTransferFrom(address,address,uint256,bytes)": {
        "details": "See {IERC721-safeTransferFrom}."
      },
      "setApprovalForAll(address,bool)": {
        "details": "See {IERC721-setApprovalForAll}."
      },
      "supportsInterface(bytes4)": {
        "details": "See {IERC165-supportsInterface}."
      },
      "symbol()": {
        "details": "See {IERC721Metadata-symbol}."
      },
      "tokenByIndex(uint256)": {
        "details": "See {IERC721Enumerable-tokenByIndex}."
      },
      "tokenOfOwnerByIndex(address,uint256)": {
        "details": "See {IERC721Enumerable-tokenOfOwnerByIndex}."
      },
      "tokenURI(uint256)": {
        "details": "See {IERC721Metadata-tokenURI}."
      },
      "totalSupply()": {
        "details": "See {IERC721Enumerable-totalSupply}."
      },
      "transferFrom(address,address,uint256)": {
        "details": "See {IERC721-transferFrom}."
      }
    },
    "version": 1
  },
  "userdoc": {
    "kind": "user",
    "methods": {},
    "version": 1
  }
}